:1000000019C083C132C09AC130C02FC02EC05AC19E
:100010002CC02BC02AC029C028C027C026C025C09C
:1000200024C023C022C021C020C01FC01EC01DC0CC
:100030001CC01BC011241FBECFEFD2E0DEBFCDBF5E
:1000400011E0A0E0B1E0EAE6F4E002C005900D9214
:10005000A830B107D9F721E0A8E0B1E001C01D92B6
:10006000AA30B207E1F794D1FEC1CACF4F925F9296
:100070006F927F928F929F92AF92BF92CF92DF92B8
:10008000EF92FF92CF93DF9300D0CDB7DEB76091B0
:100090000301709104018091050190910601409047
:1000A000030150900401609005017090060180905A
:1000B000030190900401A0900501B090060120E199
:1000C000C22E2EE0D22EE12CF12CA7019601A9D14F
:1000D0002983C301B201A7019601A3D13CE3C32E3A
:1000E000D12CE12CF12CA70196019BD12A83C501CB
:1000F000B401A701960195D1862F69817A810F906D
:100100000F90DF91CF91FF90EF90DF90CF90BF9055
:10011000AF909F908F907F906F905F904F900895D9
:100120008BB160FB87F961FB86F962FB85F963FBA4
:1001300084F964FB83F98BB988B170FB85F971FB95
:1001400084F972FB83F973FB82F974FB81F975FB07
:1001500080F988B908958091030190910401A091DC
:100160000501B0910601BC01CD016F5F7F4F8F4F3C
:100170009F4F20E831E541E050E053D16093030107
:10018000709304018093050190930601609103012F
:100190007091040180910501909106012CE330E0FB
:1001A00040E050E03ED1672B682B692B11F45EDFF5
:1001B000B7CF089584B1866084B98AB1886F8AB94F
:1001C00087B18F6387B90895E0E8F0E08081836F9D
:1001D0008083E1E8F0E08081896080838081897E8E
:1001E00080838AE090E090938900809388009093C8
:1001F0008B0080938A00089580917000887F80939F
:1002000070008091B60080628093B6001092B200B8
:100210008091B00080648093B0008091B0008F77AF
:100220008093B0008091B00082608093B000809194
:10023000B0008E7F8093B0008091B100877F809363
:10024000B1008091B10085608093B1008091B100D0
:100250008D7F8093B1008FEF8093B3008091B600C3
:100260008F71811109C087B3876087BB809170004F
:1002700082608093700008950000F0CF529884B19E
:10028000877E84B95A9A85B1886185B9E9E6F0E03C
:1002900080818260808380818E7F8083E89AE8E617
:1002A000F0E0808181608083EBE6F0E0808188610E
:1002B000808308957FDFE2DF87DF9EDFD7DE30DFD8
:1002C000789408951F920F920FB60F9211242F93D6
:1002D0003F934F935F936F937F938F939F93AF93CE
:1002E000BF93EF93FF9337DFFF91EF91BF91AF91F2
:1002F0009F918F917F916F915F914F913F912F913E
:100300000F900FBE0F901F9018951F921FB61F924F
:1003100011248F939F9380910001811109C082E085
:1003200090E0909309018093080184E68093000196
:100330009F918F911F901FBE1F9018951F921FB6FF
:100340001F9211248F939F931B990DC080910101DF
:10035000811109C083E090E0909309018093080126
:1003600084E6809301011C990DC0809102018111E6
:1003700009C084E090E0909309018093080184E62D
:10038000809302019F918F911F901FBE1F9018951F
:10039000809108019091090182309105B1F150F4EA
:1003A000892B89F487DF81E090E0909309018093A5
:1003B0000801EECF8330910569F1049771F1F8944B
:1003C00080E090E0089580910001811529F08091EE
:1003D000000181508093000180910101811529F075
:1003E000809101018150809301018091020181156A
:1003F00029F08091020181508093020189EF90E001
:100400000197F1F700C00000C3CF88B1807C8561FF
:1004100088B9C9CF88B18F63FBCF88B1807C8863EE
:10042000F7CFA1E21A2EAA1BBB1BFD010DC0AA1F0C
:10043000BB1FEE1FFF1FA217B307E407F50720F04D
:10044000A21BB30BE40BF50B661F771F881F991FC8
:100450001A9469F760957095809590959B01AC0111
:0A046000BD01CF010895F894FFCF0D
:08046A0064646495F1000000D8
:00000001FF
