:1000000019C094C132C0ADC130C02FC02EC06BC169
:100010002CC02BC02AC029C028C027C026C025C09C
:1000200024C023C022C021C020C01FC01EC01DC0CC
:100030001CC01BC011241FBECFEFD2E0DEBFCDBF5E
:1000400011E0A0E0B1E0EEEAF4E002C005900D920C
:10005000A830B107D9F721E0A8E0B1E001C01D92B6
:10006000AA30B207E1F7A9D120C2CACF4F925F925E
:100070006F927F928F929F92AF92BF92CF92DF92B8
:10008000EF92FF92CF93DF9360910401709105018D
:100090008091060190910701409004015090050164
:1000A0006090060170900701809004019090050116
:1000B000A0900601B090070120E1C22E2EE0D22EC2
:1000C000E12CF12CA7019601CED1D22FC301B201B0
:1000D000A7019601C8D13CE3C32ED12CE12CF12C11
:1000E000A7019601C0D1C22FC501B401A701960195
:1000F000BAD1862F6D2F7C2FDF91CF91FF90EF909B
:10010000DF90CF90BF90AF909F908F907F906F9037
:100110005F904F9008959BB160FB97F961FB96F952
:1001200062FB95F963FB94F964FB93F99BB9909199
:100130000301992371F088B170FB85F971FB84F993
:1001400072FB83F973FB82F974FB81F975FB80F90B
:100150000EC098B180FB95F981FB94F982FB93F96D
:1001600083FB92F984FB91F985FB90F9892F88B97B
:1001700008958091040190910501A0910601B0912C
:100180000701BC01CD016F5F7F4F8F4F9F4F20E86C
:1001900031E541E050E067D16093040170930501BF
:1001A000809306019093070180910301882389F0D1
:1001B0006091040170910501809106019091070101
:1001C0002CE330E040E050E04ED1672B682B692BE8
:1001D00011F44CDFA0DF089584B1866084B98AB140
:1001E000886F8AB987B18F6387B90895E0E8F0E036
:1001F0008081836F8083E1E8F0E080818960808383
:100200008081897E80838AE090E09093890080934A
:10021000880090938B0080938A00089580917000ED
:10022000887F809370008091B60080628093B600D2
:100230001092B2008091B00080648093B0008091F1
:10024000B0008F778093B0008091B000826080937F
:10025000B0008091B0008E7F8093B0008091B1009B
:10026000877F8093B1008091B10085608093B10059
:100270008091B1008D7F8093B1008FEF8093B300A8
:100280008091B6008F7111F00000FACF87B38760BC
:1002900087BB8091700082608093700008955298AF
:1002A00084B1877E84B95A9A85B1886185B9E9E6B7
:1002B000F0E080818260808380818E7F8083E89AF5
:1002C000E8E6F0E0808181608083EBE6F0E0808109
:1002D00088618083089580DFE2DF88DF9FDFC6DEEC
:1002E0001ADF789408951F920F920FB60F9211247F
:1002F0002F933F934F935F936F937F938F939F932E
:10030000AF93BF93EF93FF9334DFFF91EF91BF91D2
:10031000AF919F918F917F916F915F914F913F919D
:100320002F910F900FBE0F901F9018951F920F9254
:100330000FB60F9211248F939F938091000181112A
:1003400009C082E090E0909309018093080184E65F
:10035000809300019F918F910F900FBE0F901F907F
:1003600018951F920F920FB60F9211248F939F939F
:100370001B990DC080910101811109C083E090E0BB
:10038000909309018093080184E6809301011C99F0
:100390000DC080910201811109C084E090E090932A
:1003A00009018093080184E6809302019F918F9157
:1003B0000F900FBE0F901F901895CF93DF93C1E061
:1003C000D0E080910801909109018230910599F166
:1003D00028F4009761F0019761F03FC083309105E8
:1003E000A1F10497D1F588B1807C886330C073DFB8
:1003F0002FC080910001882329F080910001815055
:100400008093000180910101882329F080910101EE
:1004100081508093010180910201882329F080910D
:10042000020181508093020189EF90E00197F1F77A
:1004300000C00000C6CF9091030181E0911180E0DF
:100440008093030113DE67DE03C088B18F6388B930
:10045000D0930901C0930801B4CFF89480E090E0F4
:10046000DF91CF910895A1E21A2EAA1BBB1BFD01BB
:100470000DC0AA1FBB1FEE1FFF1FA217B307E40783
:10048000F50720F0A21BB30BE40BF50B661F771FDB
:10049000881F991F1A9469F76095709580959095BB
:0E04A0009B01AC01BD01CF010895F894FFCF80
:0804AE0064646401FDFC000020
:00000001FF
